:020000040800F2
:1000000000800120C9570008195800081958000835
:100010001958000819580008195800080000000075
:100020000000000000000000000000007D550008F6
:1000300019580008000000008D5500089D55000863
:1000400019580008195800081958000819580008CC
:1000500019580008195800081958000819580008BC
:1000600019580008195800081958000819580008AC
:10007000195800081958000819580008195800089C
:10008000195800081958000819580008195800088C
:10009000195800081958000819580008195800087C
:1000A0001958000819580008AD55000819580008DB
:1000B000195800081958000819580008195800085C
:1000C000195800081958000819580008195800084C
:1000D0001958000819580008C15500081958000897
:1000E000D555000819580008195800081958000873
:1000F000195800081958000819580008195800081C
:10010000195800081958000819580008195800080B
:1001100019580008195800081958000819580008FB
:1001200019580008195800081958000819580008EB
:1001300019580008195800081958000819580008DB
:1001400019580008195800081958000819580008CB
:1001500019580008195800081958000819580008BB
:1001600019580008195800081958000819580008AB
:100170001958000819580008195800080000000014
:08018000195800081958000885
:1001900010B5054C237833B9044B13B10448AFF3C1
:1001A00000800123237010BD7805002000000000AE
:1001B0005092000808B5034B1BB103490348AFF345
:1001C000008008BD000000007C050020509200085F
:1001D000034613F8012B002AFBD1181A0138704787
:1001E00001F0FF01102A2BDB10F0070F08D010F8E8
:1001F000013B013A8B422DD010F0070F42B3F6D1EC
:10020000F0B441EA012141EA014122F007047FF004
:1002100000070023F0E80256083C85EA010586EA5B
:10022000010685FA47F5A3FA87F586FA47F6A5FA97
:1002300087F68EB9EED1F0BC01F0FF0102F00702A3
:1002400032B110F8013B013A83EA010313B1F8D14E
:100250000020704701387047002D06BF354603382F
:10026000073815F0010F07D1013015F4807F02BF68
:10027000013015F4C03F0130F0BC0138704700BFB9
:1002800081F0004102E000BF83F0004330B54FEA47
:1002900041044FEA430594EA050F08BF90EA020FB4
:1002A0001FBF54EA000C55EA020C7FEA645C7FEA47
:1002B000655C00F0E2804FEA5454D4EB5555B8BF6A
:1002C0006D420CDD2C4480EA020281EA030382EADB
:1002D000000083EA010180EA020281EA0303362D6D
:1002E00088BF30BD11F0004F4FEA01314FF4801C40
:1002F0004CEA113102D0404261EB410113F0004F52
:100300004FEA03334CEA133302D0524263EB430308
:1003100094EA050F00F0A780A4F10104D5F1200EA6
:100320000DDB02FA0EFC22FA05F2801841F1000101
:1003300003FA0EF2801843FA05F359410EE0A5F1D5
:1003400020050EF1200E012A03FA0EFC28BF4CF006
:10035000020C43FA05F3C01851EBE37101F00045BC
:1003600007D54FF0000EDCF1000C7EEB00006EEBC9
:100370000101B1F5801F1BD3B1F5001F0CD3490853
:100380005FEA30004FEA3C0C04F101044FEA4452AA
:1003900012F5800F80F09A80BCF1004F08BF5FEA31
:1003A000500C50F1000041EB045141EA050130BD11
:1003B0005FEA4C0C404141EB010111F4801FA4F1B4
:1003C0000104E9D191F0000F04BF01460020B1FA09
:1003D00081F308BF2033A3F10B03B3F120020CDA41
:1003E0000C3208DD02F1140CC2F10C0201FA0CF01F
:1003F00021FA02F10CE002F11402D8BFC2F1200C84
:1004000001FA02F120FA0CFCDCBF41EA0C01904039
:10041000E41AA2BF01EB0451294330BD6FEA040482
:100420001F3C1CDA0C340EDC04F11404C4F120026D
:1004300020FA04F001FA02F340EA030021FA04F37F
:1004400045EA030130BDC4F10C04C4F1200220FAD6
:1004500002F001FA04F340EA0300294630BD21FA14
:1004600004F0294630BD94F0000F83F4801306BFDA
:1004700081F480110134013D4EE77FEA645C18BFCE
:100480007FEA655C29D094EA050F08BF90EA020F65
:1004900005D054EA000C04BF1946104630BD91EA5D
:1004A000030F1EBF0021002030BD5FEA545C05D160
:1004B0004000494128BF41F0004130BD14F580049F
:1004C0003CBF01F5801130BD01F0004545F0FE4113
:1004D00041F470014FF0000030BD7FEA645C1ABF48
:1004E000194610467FEA655C1CBF0B46024650EA7F
:1004F000013406BF52EA033591EA030F41F40021AB
:1005000030BD00BF90F0000F04BF0021704730B530
:100510004FF4806404F132044FF000054FF0000105
:1005200050E700BF90F0000F04BF0021704730B5C6
:100530004FF4806404F1320410F0004548BF40429B
:100540004FF000013EE700BF42004FEAE2014FEAF0
:1005500031014FEA02701FBF12F07F4393F07F4FCB
:1005600081F06051704792F0000F14BF93F07F4FFD
:10057000704730B54FF4607401F0004521F0004140
:1005800020E700BF50EA010208BF704730B54FF0C6
:1005900000050AE050EA010208BF704730B511F0CB
:1005A000004502D5404261EB41014FF4806404F103
:1005B00032045FEA915C3FF4DCAE4FF003025FEA85
:1005C000DC0C18BF03325FEADC0C18BF033202EB0D
:1005D000DC02C2F1200300FA03FC20FA02F001FA67
:1005E00003FE40EA0E0021FA02F11444C1E600BF06
:1005F00070B54FF0FF0C4CF4E06C1CEA11541DBFB9
:100600001CEA135594EA0C0F95EA0C0F00F0DEF883
:100610002C4481EA030621EA4C5123EA4C5350EA68
:10062000013518BF52EA033541F4801143F48013B9
:1006300038D0A0FB02CE4FF00005E1FB02E506F04A
:100640000042E0FB03E54FF00006E1FB03569CF09F
:10065000000F18BF4EF0010EA4F1FF04B6F5007FA5
:1006600064F5407404D25FEA4E0E6D4146EB060617
:1006700042EAC62141EA55514FEAC52040EA5E50A0
:100680004FEACE2EB4F1FD0C88BFBCF5E06F1ED84A
:10069000BEF1004F08BF5FEA500E50F1000041EB81
:1006A000045170BD06F0004646EA010140EA02002E
:1006B00081EA0301B4EB5C04C2BFD4EB0C0541EA50
:1006C000045170BD41F480114FF0000E013C00F365
:1006D000AB8014F1360FDEBF002001F0004170BD89
:1006E000C4F10004203C35DA0C341BDC04F11404A2
:1006F000C4F1200500FA05F320FA04F001FA05F22E
:1007000040EA020001F0004221F0004110EBD370FA
:1007100021FA04F642EB06015EEA430E08BF20EA26
:10072000D37070BDC4F10C04C4F1200500FA04F3C9
:1007300020FA05F001FA04F240EA020001F000415B
:1007400010EBD37041F100015EEA430E08BF20EACE
:10075000D37070BDC4F1200500FA05F24EEA020E16
:1007600020FA04F301FA05F243EA020321FA04F045
:1007700001F0004121FA04F220EA020000EBD370FC
:100780005EEA430E08BF20EAD37070BD94F0000FFC
:100790000FD101F00046400041EB010111F4801F30
:1007A00008BF013CF7D041EA060195F0000F18BFE1
:1007B000704703F00046520043EB030313F4801F1D
:1007C00008BF013DF7D043EA0603704794EA0C0FD7
:1007D0000CEA135518BF95EA0C0F0CD050EA4106ED
:1007E00018BF52EA4306D1D181EA030101F000416A
:1007F0004FF0000070BD50EA410606BF1046194692
:1008000052EA430619D094EA0C0F02D150EA01369D
:1008100013D195EA0C0F05D152EA03361CBF1046DE
:1008200019460AD181EA030101F0004141F0FE417D
:1008300041F470014FF0000070BD41F0FE4141F401
:10084000780170BD70B54FF0FF0C4CF4E06C1CEA01
:1008500011541DBF1CEA135594EA0C0F95EA0C0FB6
:1008600000F0A7F8A4EB050481EA030E52EA033571
:100870004FEA013100F088804FEA03334FF0805592
:1008800045EA131343EA12634FEA022245EA1115BF
:1008900045EA10654FEA00260EF000419D4208BF70
:1008A000964244F1FD0404F5407402D25B084FEA1D
:1008B0003202B61A65EB03055B084FEA32024FF4C9
:1008C00080104FF4002CB6EB020E75EB030E22BF26
:1008D000B61A754640EA0C005B084FEA3202B6EBE6
:1008E000020E75EB030E22BFB61A754640EA5C0095
:1008F0005B084FEA3202B6EB020E75EB030E22BF25
:10090000B61A754640EA9C005B084FEA3202B6EB25
:10091000020E75EB030E22BFB61A754640EADC00E4
:1009200055EA060E18D04FEA051545EA16754FEA46
:1009300006164FEAC30343EA52734FEAC2025FEA64
:100940001C1CC0D111F4801F0BD141EA00014FF0F3
:1009500000004FF0004CB6E711F4801F04BF0143C4
:100960000020B4F1FD0C88BFBCF5E06F3FF6AFAEE0
:10097000B5EB030C04BFB6EB020C5FEA500C50F170
:10098000000041EB045170BD0EF0004E4EEA1131F3
:1009900014EB5C04C2BFD4EB0C0541EA045170BDFA
:1009A00041F480114FF0000E013C90E645EA060E3E
:1009B0008DE60CEA135594EA0C0F08BF95EA0C0F6C
:1009C0003FF43BAF94EA0C0F0AD150EA01347FF4B4
:1009D00034AF95EA0C0F7FF425AF104619462CE78B
:1009E00095EA0C0F06D152EA03353FF4FDAE1046EE
:1009F000194622E750EA410618BF52EA43067FF43F
:100A0000C5AE50EA41047FF40DAF52EA43057FF4CE
:100A1000EBAE12E74FF0FF3C06E000BF4FF0010CD9
:100A200002E000BF4FF0010C4DF804CD4FEA410C3D
:100A30007FEA6C5C4FEA430C18BF7FEA6C5C1BD00A
:100A400001B050EA410C0CBF52EA430C91EA030F8B
:100A500002BF90EA020F0020704710F1000F91EAE8
:100A6000030F58BF994208BF90422CBFD8176FEAB6
:100A7000E37040F0010070474FEA410C7FEA6C5C84
:100A800002D150EA013C07D14FEA430C7FEA6C5C8B
:100A9000D6D152EA033CD3D05DF8040B704700BFB7
:100AA0008446104662468C461946634600E000BF05
:100AB00001B5FFF7B7FF002848BF10F1000F01BDD7
:100AC0004DF808EDFFF7F4FF0CBF012000205DF8A2
:100AD00008FB00BF4DF808EDFFF7EAFF34BF012027
:100AE00000205DF808FB00BF4DF808EDFFF7E0FFC0
:100AF00094BF012000205DF808FB00BF4DF808ED11
:100B0000FFF7CEFF94BF012000205DF808FB00BF77
:100B10004DF808EDFFF7C4FF34BF012000205DF859
:100B200008FB00BF4FEA410C7FEA6C5C02D150EA3F
:100B3000013C0AD14FEA430C7FEA6C5C02D152EAD5
:100B4000033C02D14FF0000070474FF001007047A6
:100B50004FEA410212F5001215D211D56FF47873E5
:100B6000B3EB625212D94FEAC12343F0004343EA88
:100B7000505311F0004F23FA02F018BF4042704763
:100B80004FF00000704750EA013005D111F00040ED
:100B900008BF6FF0004070474FF00000704700BF83
:100BA0004A0011D212F5001211D20DD56FF47873EC
:100BB000B3EB62520ED44FEAC12343F0004343EA41
:100BC000505323FA02F070474FF00000704750EA8C
:100BD000013002D14FF0FF3070474FF000007047F6
:100BE0004FEA4102B2F1E04324BFB3F5001CDCF14F
:100BF000FE5C0DD901F0004C4FEAC0024CEA507087
:100C0000B2F1004F40EB830008BF20F001007047B5
:100C100011F0804F21D113F13872BCBF01F00040B8
:100C2000704741F480114FEA5252C2F11802C2F1EA
:100C3000200C10FA0CF320FA02F018BF40F001006B
:100C40004FEAC1234FEAD32303FA0CFC40EA0C001D
:100C500023FA02F34FEA4303CCE77FEA625307D15A
:100C600050EA01331EBF4FF0FE4040F44000704791
:100C700001F0004040F0FE4040F40000704700BF2B
:100C800053B94AB9002908BF00281CBF4FF0FF31F3
:100C90004FF0FF3000F07EB9ADF1080C6DE904CEE5
:100CA00000F006F8DDF804E0DDE9022304B0704747
:100CB0002DE9F0478C460E460446089D002B50D186
:100CC0008A4217466CD9B2FA82FEBEF1000F0BD0F1
:100CD000CEF1200420FA04F401FA0EF644EA060CE0
:100CE00002FA0EF700FA0EF44FEA1749220CBCFB89
:100CF000F9F01FFA87F809FB10C642EA064600FB26
:100D000008F3B34209D9F61900F1FF3280F02281CD
:100D1000B34240F21F8102383E44F61AA2B2B6FB3B
:100D2000F9F309FB136642EA064403FB08F8A04501
:100D300009D9E41903F1FF3280F00A81A04540F29D
:100D40000781023B3C44C8EB040443EA0040002115
:100D5000002D62D024FA0EF400232C606B60BDE8F5
:100D6000F0878B4207D9002D55D0002185E841003E
:100D70000846BDE8F087B3FA83F1002940F090807F
:100D8000B34202D3824200F2F880841A66EB030673
:100D90000120B446002D40D085E81010BDE8F08752
:100DA00012B90127B7FBF2F7B7FA87FEBEF1000FC1
:100DB00035D1F31B4FEA17481FFA87FC0121B3FB1B
:100DC000F8F0220C08FB103642EA06460CFB00F352
:100DD000B34207D9F61900F1FF3202D2B34200F252
:100DE000CE801046F61AA2B2B6FBF8F308FB1366E3
:100DF00042EA06440CFB03FCA44507D9E41903F1BD
:100E0000FF3202D2A44500F2B5801346CCEB0404B5
:100E100043EA00409CE729462846BDE8F087CEF12A
:100E2000200106FA0EF307FA0EF720FA01F94FEA4D
:100E30001748CE4049EA0309B6FBF8FA4FEA1944CD
:100E400008FB1A661FFA87FC44EA06430AFB0CF209
:100E50009A4200FA0EF40AD9DB190AF1FF3180F048
:100E600087809A4240F28480AAF1020A3B449B1A8E
:100E70001FFA89F9B3FBF8F108FB113349EA034380
:100E800001FB0CF69E4207D9DB1901F1FF326BD250
:100E90009E4269D902393B449B1B41EA0A418EE7D5
:100EA000C1F1200E22FA0EF48B40234320FA0EF7F4
:100EB00006FA01F44FEA134C26FA0EF63C43B6FB51
:100EC000FCF9270C0CFB19661FFA83F847EA064663
:100ED00009FB08F7B74202FA01F200FA01FA08D951
:100EE000F61809F1FF3041D2B7423FD9A9F1020902
:100EF0001E44F61BA0B2B6FBFCF40CFB146640EAE1
:100F0000064704FB08F8B84507D9FF1804F1FF307D
:100F100028D2B84526D9023C1F4444EA0940C8EB10
:100F20000707A0FB02894F4544464E4614D329D0FB
:100F300065B3BAEB040367EB060707FA0EFECB4076
:100F4000CF404EEA030385E888000021BDE8F08722
:100F50001346F8E61046E0E6B8EB020469EB030638
:100F60000138E5E70446D8E7114695E78146C0E732
:100F70008A467CE7023B3C4448E708460AE70238D9
:100F80003E442FE7C245E7D33E46D1E72946BDE8B8
:100F9000F08700BF704700BF80B500AF084A084B1C
:100FA0001B6843F480731360032000F029F90020CC
:100FB00000F008F804F094FA0023184680BD00BF42
:100FC0000020024080B582B000AF7860094B1B68FA
:100FD000094AA2FB03239B09184600F047F90022A7
:100FE00079684FF0FF3000F017F9002318460837F2
:100FF000BD4680BD10000020D34D621080B400AF0C
:10100000044B1B680133034A136000BFBD465DF803
:10101000047B70471006002080B400AF034B1B68B0
:101020001846BD465DF8047B704700BF10060020DF
:1010300080B584B000AF7860FFF7EEFFB8607B68E2
:10104000FB60FB68B3F1FF3F02D0FB680133FB603C
:1010500000BFFFF7E1FF0246BB68D21AFB689A4265
:10106000F7D300BF1037BD4680BD00BF80B485B048
:1010700000AF78607B6803F00703FB600C4BDB6814
:10108000BB60BA684FF6FF031340BB60FB681A02EF
:10109000BB68134343F0BF6343F40033BB60044AAF
:1010A000BB68D36000BF1437BD465DF8047B704752
:1010B00000ED00E080B400AF044BDB6803F4E063B4
:1010C0001B0A1846BD465DF8047B704700ED00E042
:1010D00080B483B000AF0346FB71094997F907302C
:1010E0005B09FA7902F01F02012000FA02F241F8CE
:1010F000232000BF0C37BD465DF8047B704700BF5E
:1011000000E100E080B483B000AF03463960FB71BA
:1011100097F90730002B0BDA0D49FB7903F00F0329
:10112000043B3A68D2B21201D2B20B441A7609E0FB
:10113000084997F907303A68D2B21201D2B20B448B
:1011400083F8002300BF0C37BD465DF8047B704771
:1011500000ED00E000E100E080B489B000AFF8608D
:10116000B9607A60FB6803F00703FB61FB69C3F1B8
:101170000703042B28BF0423BB61FB690433062B40
:1011800002D9FB69033B00E000237B610122BB69BC
:1011900002FA03F35A1EBB681A407B699A40012188
:1011A0007B6901FA03F3591E7B680B401343184611
:1011B0002437BD465DF8047B704700BF80B582B020
:1011C00000AF78607B68013BB3F1807F01D30123DE
:1011D0000FE00A4A7B68013B53600F214FF0FF305C
:1011E000FFF790FF054B00229A60044B07221A601C
:1011F000002318460837BD4680BD00BF10E000E060
:1012000080B582B000AF78607868FFF72FFF00BF2D
:101210000837BD4680BD00BF80B586B000AF03462D
:10122000B9607A60FB7300237B61FFF743FF78614D
:101230007A68B9687869FFF78FFF024697F90F302F
:1012400011461846FFF75EFF00BF1837BD4680BD48
:1012500080B582B000AF0346FB7197F9073018469E
:10126000FFF736FF00BF0837BD4680BD80B582B0AE
:1012700000AF78607868FFF7A1FF0346184608378B
:10128000BD4680BD80B483B000AF78607B68042B1E
:1012900006D1094A084B1B6843F00403136005E0BC
:1012A000054A054B1B6823F00403136000BF0C378D
:1012B000BD465DF8047B704710E000E080B500AFEC
:1012C00000F002F800BF80BD80B400AF00BFBD4693
:1012D0005DF8047B704700BF80B584B000AF7860D4
:1012E0000023FB737B6893F82530DBB2022B05D01B
:1012F0007B680422DA630123FB7327E07B681B68A9
:101300007A681268126822F00E021A607B681B6805
:101310007A681268126822F001021A607B681B6CFE
:101320007A68526C012101FA02F25A607B6801224C
:1013300083F825207B68002283F824207B689B6B40
:10134000002B03D07B689B6B78689847FB7B184623
:101350001037BD4680BD00BF80B487B000AF786055
:10136000396000237B610023FB6000233B617FE148
:101370003B681A6801217B6901FA03F31340FB60A3
:10138000FB68002B00F071813B685B68022B03D087
:101390003B685B68122B23D17B69DA087B680832D3
:1013A00053F822303B617B6903F007039B000F2257
:1013B00002FA03F3DB433A6913403B613B681A6965
:1013C0007B6903F007039B0002FA03F33A691343B6
:1013D0003B617B69DA087B680832396943F822107F
:1013E0007B681B683B617B695B00032202FA03F3A5
:1013F000DB433A6913403B613B685B6803F00302DF
:101400007B695B0002FA03F33A6913433B617B6833
:101410003A691A603B685B68012B0BD03B685B68DC
:10142000022B07D03B685B68112B03D03B685B68DD
:10143000122B30D17B689B683B617B695B00032288
:1014400002FA03F3DB433A6913403B613B68DA6815
:101450007B695B0002FA03F33A6913433B617B68E3
:101460003A699A607B685B683B6101227B6902FA9A
:1014700003F3DB433A6913403B613B685B681B093C
:1014800003F001027B6902FA03F33A6913433B61FB
:101490007B683A695A603B685B6803F00303032B7F
:1014A00018D17B68DB6A3B6101227B6902FA03F396
:1014B000DB433A6913403B613B685B68DB0803F040
:1014C00001027B6902FA03F33A6913433B617B68CB
:1014D0003A69DA627B68DB683B617B695B00032207
:1014E00002FA03F3DB433A6913403B613B689A68B5
:1014F0007B695B0002FA03F33A6913433B617B6843
:101500003A69DA603B685B6803F08053002B00F0B7
:10151000AC805E4A5D4B1B6E43F0010313665B4B70
:101520001B6E03F00103BB60BB68594A7B699B08D3
:10153000023352F823303B617B6903F003039B00C5
:101540000F2202FA03F3DB433A6913403B617B68E5
:10155000B3F1904F25D07B684E4A93421FD07B68F1
:101560004D4A934219D07B684C4A934213D07B6812
:101570004B4A93420DD07B684A4A934207D07B681E
:10158000494A934201D106230CE007230AE00523D0
:1015900008E0042306E0032304E0022302E0012321
:1015A00000E000237A6902F00302920093403A6956
:1015B00013433B6136497B699B0802333A6941F822
:1015C00023203A4B1B683B61FB68DB433A691340BD
:1015D0003B613B685B6803F48033002B03D03A69BE
:1015E000FB6813433B61314A3B6913602F4B5B68D7
:1015F0003B61FB68DB433A6913403B613B685B68D6
:1016000003F40033002B03D03A69FB6813433B61BA
:10161000264A3B695360254B9B683B61FB68DB4373
:101620003A6913403B613B685B6803F48013002B0D
:1016300003D03A69FB6813433B611C4A3B699360E2
:101640001A4BDB683B61FB68DB433A6913403B6143
:101650003B685B6803F40013002B03D03A69FB6816
:1016600013433B61114A3B69D3607B6901337B6162
:101670003B681A687B6922FA03F3002B7FF478AE8B
:1016800000BF1C37BD465DF8047B70470010024068
:10169000000001400004004800080048000C004819
:1016A00000100048001400480018004800040140E1
:1016B00080B485B000AF78600B467B807B681A6988
:1016C0007B881340002B02D00123FB7301E0002331
:1016D000FB73FB7B18461437BD465DF8047B7047EF
:1016E00080B483B000AF78600B467B8013467B707C
:1016F0007B78002B03D07A887B689A6102E07A8835
:101700007B689A6200BF0C37BD465DF8047B70476A
:1017100080B483B000AF78600B467B807B685A69E9
:101720007B885A407B685A6100BF0C37BD465DF824
:10173000047B704780B582B000AF0346FB80084B46
:101740005A69FB881340002B06D0054AFB88536179
:10175000FB88184603F040FA00BF0837BD4680BD3D
:101760000004014080B582B000AF78607B68002B38
:1017700001D1012380E07B6893F84130DBB2002B7C
:1017800006D17B68002283F84020786803F0D0F906
:101790007B68242283F841207B681B687A68126882
:1017A000126822F001021A607B681B687A6852682E
:1017B00022F070621A617B681B687A68126892680E
:1017C00022F400429A607B68DB68012B07D17B68BA
:1017D0001B687A68926842F400429A6006E07B686F
:1017E0001B687A68926842F404429A607B68DB68FE
:1017F000022B04D17B681B684FF400625A607B683F
:101800001A687B681B685B6843F0007343F400430D
:1018100053607B681B687A681268D26822F40042C1
:10182000DA607B681B687A6811697A6852691143CB
:101830007A68926912020A43DA607B681B687A68E8
:10184000D1697A68126A0A431A607B681B687A68F1
:101850001268126842F001021A607B6800225A6422
:101860007B68202283F841207B6800221A637B6812
:10187000002283F84220002318460837BD4680BD69
:1018800080B483B000AF786039607B6893F84130F2
:10189000DBB2202B38D17B6893F84030012B01D18B
:1018A000022332E07B68012283F840207B682422F7
:1018B00083F841207B681B687A681268126822F0FE
:1018C00001021A607B681B687A681268126822F449
:1018D00080521A607B681B687A68126811683A68DF
:1018E0000A431A607B681B687A681268126842F0C3
:1018F00001021A607B68202283F841207B68002265
:1019000083F84020002300E0022318460C37BD4630
:101910005DF8047B704700BF80B485B000AF78608D
:1019200039600023FB607B6893F84130DBB2202BE9
:1019300039D17B6893F84030012B01D1022333E089
:101940007B68012283F840207B68242283F84120B1
:101950007B681B687A681268126822F001021A60BC
:101960007B681B681B68FB60FB6823F47063FB608B
:101970003B681B02FA681343FB607B681B68FA68CC
:101980001A607B681B687A681268126842F001026C
:101990001A607B68202283F841207B68002283F84C
:1019A0004020002300E0022318461437BD465DF8AE
:1019B000047B704780B400AF044B1B6803F4C06322
:1019C0001846BD465DF8047B704700BF00700040BC
:1019D00080B485B000AF78600023FB607B68B3F50E
:1019E000007F2DD1214B1B6803F4C063B3F5007F4A
:1019F00035D01E4A1D4B1B6823F4C06343F40073AB
:101A000013601B4B1B681B4AA2FB03239B0C322257
:101A100002FB03F3FB6002E0FB68013BFB60FB6839
:101A2000002B05D0114B5B6903F48063002BF3D1CD
:101A30000E4B5B6903F48063002B10D003230FE08F
:101A40000A4B1B6803F4C063B3F5806F07D0074AE5
:101A5000064B1B6823F4C06343F4806313600023C8
:101A600018461437BD465DF8047B7047007000408F
:101A70001000002083DE1B4380B586B000AF786085
:101A800000233B617B681B6803F01003002B00F010
:101A9000D080A14B9B6803F00C03002B79D19E4BA7
:101AA0001B6803F00203002B05D07B689B69002BA9
:101AB00001D101233CE37B681A6A974B1B6803F052
:101AC0000803002B04D0944B1B6803F0F00305E0DF
:101AD000914BD3F8943003F470631B099A4223D9D5
:101AE0007B681B6A184600F025FD0346002B01D0D9
:101AF00001231DE3884A884B1B6843F008031360E9
:101B00008549854B1B6823F0F0027B681B6A1343F1
:101B10000B608149804B5B6823F47F427B68DB6903
:101B20001B0213434B6022E07B4A7B4B1B6843F054
:101B3000080313607849784B1B6823F0F0027B6838
:101B40001B6A13430B607449734B5B6823F47F4239
:101B50007B68DB691B0213434B607B681B6A18467A
:101B600000F0E8FC0346002B01D00123E0E200F086
:101B7000FDFB0146684B9B6803F0F0031B09674AB5
:101B8000D35C21FA03F3664A13600020FFF71AFAC8
:101B90004FE07B689B69002B32D05F4A5E4B1B682D
:101BA00043F001031360FFF737FA386108E0FFF7ED
:101BB00033FA02463B69D31A022B01D90323B7E259
:101BC000554B1B6803F00203002BF0D0524A524BD6
:101BD0001B6843F0080313604F494F4B1B6823F009
:101BE000F0027B681B6A13430B604B494A4B5B68EE
:101BF00023F47F427B68DB691B0213434B6018E0D0
:101C0000454A454B1B6823F001031360FFF704FAB4
:101C1000386108E0FFF700FA02463B69D31A022B4D
:101C200001D9032384E23C4B1B6803F00203002B21
:101C3000F0D17B681B6803F00103002B7AD0364B90
:101C40009B6803F00C03082B0BD0334B9B6803F00D
:101C50000C030C2B11D1304BDB6803F00303032B77
:101C60000BD12D4B1B6803F40033002B61D07B6834
:101C70005B68002B5DD101235AE27B685B68B3F59A
:101C8000803F06D1244A244B1B6843F48033136001
:101C90001DE07B685B68B3F5A02F0CD11E4A1E4B7C
:101CA0001B6843F4802313601B4A1B4B1B6843F4DF
:101CB000803313600BE0184A174B1B6823F4803302
:101CC0001360154A144B1B6823F4802313607B6850
:101CD0005B68002B13D0FFF79FF9386108E0FFF72E
:101CE0009BF902463B69D31A642B01D903231FE2F7
:101CF000094B1B6803F40033002BF0D01AE0FFF708
:101D00008BF938610EE0FFF787F902463B69D31A79
:101D1000642B07D903230BE2001002404493000810
:101D200010000020A94B1B6803F40033002BEAD1FC
:101D300000E000BF7B681B6803F00203002B69D042
:101D4000A24B9B6803F00C03042B0BD09F4B9B68AA
:101D500003F00C030C2B1CD19C4BDB6803F003033A
:101D6000022B16D1994B1B6803F48063002B05D01E
:101D70007B68DB68002B01D10123D9E19349934BA8
:101D80005B6823F0F8527B681B691B0613434B60AA
:101D900040E07B68DB68002B23D08C4A8B4B1B68B0
:101DA00043F480731360FFF737F9386108E0FFF7F9
:101DB00033F902463B69D31A022B01D90323B7E159
:101DC000824B1B6803F48063002BF0D07F497F4B6C
:101DD0005B6823F0F8527B681B691B0613434B605A
:101DE00018E07A4A794B1B6823F480731360FFF77D
:101DF00013F9386108E0FFF70FF902463B69D31A7F
:101E0000022B01D9032393E1704B1B6803F4806319
:101E1000002BF0D17B681B6803F00803002B3CD03B
:101E20007B685B69002B1CD0684A684BD3F8943000
:101E300043F00103C2F89430FFF7EEF8386108E090
:101E4000FFF7EAF802463B69D31A022B01D90323B4
:101E50006EE15E4BD3F8943003F00203002BEFD019
:101E60001BE05A4A594BD3F8943023F00103C2F8CF
:101E70009430FFF7D1F8386108E0FFF7CDF802465B
:101E80003B69D31A022B01D9032351E14F4BD3F8FD
:101E9000943003F00203002BEFD17B681B6803F042
:101EA0000403002B00F0A6800023FB75474B9B6DBD
:101EB00003F08053002B0DD1444A444B9B6D43F0FB
:101EC00080539365414B9B6D03F08053FB60FB682F
:101ED0000123FB753E4B1B6803F48073002B18D164
:101EE0003B4A3B4B1B6843F480731360FFF794F845
:101EF000386108E0FFF790F802463B69D31A022BDD
:101F000001D9032314E1324B1B6803F48073002BC7
:101F1000F0D07B689B68012B08D12C4A2B4BD3F85F
:101F2000903043F00103C2F8903024E07B689B6856
:101F3000052B10D1254A254BD3F8903043F00403EC
:101F4000C2F89030214A214BD3F8903043F001037E
:101F5000C2F890300FE01D4A1C4BD3F8903023F0AC
:101F60000103C2F89030194A184BD3F8903023F08F
:101F70000403C2F890307B689B68002B16D0FFF7F3
:101F80004BF838610AE0FFF747F802463B69D31A7D
:101F900041F28832934201D90323C9E00B4BD3F8B5
:101FA000903003F00203002BEDD01AE0FFF734F875
:101FB00038610FE0FFF730F802463B69D31A41F26F
:101FC0008832934206D90323B2E000BF00100240DA
:101FD00000700040584BD3F8903003F00203002B00
:101FE000E8D1FB7D012B05D1534A534B9B6D23F068
:101FF000805393657B689B6A002B00F098804E4B62
:102000009B6803F00C030C2B00F08F807B689B6AAD
:10201000022B56D1484A484B1B6823F0807313604B
:10202000FEF7FAFF386108E0FEF7F6FF02463B696B
:10203000D31A022B01D903237AE03F4B1B6803F02C
:102040000073002BF0D13C497B681B6B013B1A01EC
:102050007B685B6B1B021A437B689B6B1B095B04F1
:102060001A437B68DB6A1A437B68DB6B5B08013BC6
:102070005B051A437B681B6C5B08013B5B061343E3
:10208000CB602D4A2C4B1B6843F0807313602A4AA7
:10209000294BDB6843F08073D360FEF7BDFF3861E6
:1020A00008E0FEF7B9FF02463B69D31A022B01D9BB
:1020B00003233DE0204B1B6803F00073002BF0D09E
:1020C00035E01D4A1C4B1B6823F0807313601A4BCC
:1020D0001B6803F00063002B0BD1174B1B6803F048
:1020E0000053002B05D1144A134BDB6823F0030384
:1020F000D360114A104BDB6823F0887323F48033DC
:10210000D360FEF789FF386108E0FEF785FF0246DD
:102110003B69D31A022B01D9032309E0064B1B6844
:1021200003F00073002BF0D101E0012300E0002355
:1021300018461837BD4680BD0010024080B584B0F7
:1021400000AF786039600023FB60844B1B6803F0AC
:1021500007023B689A4210D28049804B1B6823F0EB
:1021600007023B6813430B607C4B1B6803F00702BC
:102170003B689A4201D00123ECE07B681B6803F0C6
:102180000103002B00F08E807B685B68032B07D176
:10219000734B1B6803F00073002B21D10123D9E09E
:1021A0007B685B68022B07D16D4B1B6803F400331F
:1021B000002B15D10123CDE07B685B68002B07D194
:1021C000674B1B6803F00203002B09D10123C1E018
:1021D000634B1B6803F48063002B01D10123B9E03A
:1021E0005F495F4B9B6823F003027B685B68134386
:1021F0008B60FEF711FFF8607B685B68032B12D1E0
:102200000AE0FEF709FF0246FB68D31A41F2883262
:10221000934201D903239DE0514B9B6803F00C03CB
:102220000C2BEED13EE07B685B68022B12D10AE0FA
:10223000FEF7F2FE0246FB68D31A41F2883293425F
:1022400001D9032386E0464B9B6803F00C03082B5F
:10225000EED127E07B685B68002B1DD10AE0FEF71A
:10226000DBFE0246FB68D31A41F28832934201D961
:1022700003236FE03A4B9B6803F00C03002BEED175
:1022800010E0FEF7C9FE0246FB68D31A41F288321D
:10229000934201D903235DE0314B9B6803F00C03AB
:1022A000042BEED17B681B6803F00203002B08D0DF
:1022B0002B492B4B9B6823F0F0027B689B681343F0
:1022C0008B60264B1B6803F007023B689A4210D9CB
:1022D0002249224B1B6823F007023B6813430B6023
:1022E0001E4B1B6803F007023B689A4201D0012392
:1022F00030E07B681B6803F00403002B08D018490A
:10230000174B9B6823F4E0627B68DB6813438B60A8
:102310007B681B6803F00803002B09D01049104BA1
:102320009B6823F460527B681B69DB0013438B605E
:1023300000F01CF801460A4B9B6803F0F0031B09F0
:10234000084AD35C21FA03F3074A13600020FEF722
:1023500039FE002318461037BD4680BD00200240DC
:1023600000100240449300081000002080B487B0A1
:1023700000AF00237B6100233B610023BB6002238D
:102380007B6002233B600023FB604C4B9B6803F0A7
:102390000C03002B0BD0494B9B6803F00C030C2B58
:1023A00027D1464BDB6803F00303012B21D1434BBC
:1023B0001B6803F00803002B07D1404BD3F894307F
:1023C00003F470631B0A7B6105E03C4B1B6803F060
:1023D000F0031B097B613A4A7B6952F823307B6129
:1023E000364B9B6803F00C03002B13D17B69FB6019
:1023F00010E0324B9B6803F00C03042B02D1314BED
:10240000FB6007E02D4B9B6803F00C03082B01D108
:102410002D4BFB60294B9B6803F00C030C2B45D123
:10242000264BDB6803F00303BB60244BDB6803F03F
:1024300070031B0901333B60BB68022B02D0032BE6
:102440000DD019E01F4A3B68B2FBF3F31B4AD26878
:1024500002F4FE42120A02FB03F33B6119E01A4A3E
:102460003B68B2FBF3F3154AD26802F4FE42120A4B
:1024700002FB03F33B610CE07A693B68B2FBF3F3C8
:102480000E4AD26802F4FE42120A02FB03F33B61D9
:1024900000BF0A4BDB6803F0C0635B0E01335B00D7
:1024A0007B603A697B68B2FBF3F3FB60FB6818461C
:1024B0001C37BD465DF8047B704700BF001002402A
:1024C0005C9300080024F40000127A0080B400AF8E
:1024D000034B1B681846BD465DF8047B704700BF80
:1024E0001000002080B500AFFFF7F0FF0146054B5C
:1024F0009B6803F4E0631B0A034AD35C21FA03F3ED
:10250000184680BD001002405493000880B500AF0B
:10251000FFF7DCFF0146054B9B6803F46053DB0AC1
:10252000034AD35C21FA03F3184680BD0010024031
:102530005493000880B586B000AF786000237B61BB
:1025400000233B612A4B9B6D03F08053002B03D08B
:10255000FFF730FA786114E0254A254B9B6D43F074
:1025600080539365224B9B6D03F08053FB60FB68A7
:10257000FFF720FA78611E4A1D4B9B6D23F08053B4
:1025800093657B69B3F5007F0BD17B68802B19D9EC
:102590007B68A02B02D902233B6113E001233B613E
:1025A00010E07B68802B02D903233B610AE07B6843
:1025B000802B02D102233B6104E07B68702B01D1A8
:1025C00001233B610B490B4B1B6823F007023B695E
:1025D00013430B60074B1B6803F007023B699A42E9
:1025E00001D0012300E0002318461837BD4680BD06
:1025F000001002400020024080B586B000AF786035
:1026000000237B610023FB600023FB740023BB7469
:102610007B681B6803F40063002B3FD07B685B6E14
:10262000B3F5800F1CD0B3F5800F02D8002B0ED06D
:102630001FE0B3F5000F03D0B3F5400F1CD018E036
:10264000824A824BDB6843F48033D36015E07B68B9
:1026500004330021184600F0B3FA0346FB740CE083
:102660007B6820330021184600F09CFB0346FB7476
:1026700003E00123FB7400E000BFFB7C002B0BD1C7
:102680007249724BD3F8883023F440027B685B6E4A
:102690001343C1F8883001E0FB7CBB747B681B6886
:1026A00003F48053002B3FD07B689B6EB3F1807F97
:1026B0001CD0B3F1807F02D8002B0ED01FE0B3F105
:1026C000007F03D0B3F1407F1CD018E05F4A5F4B1E
:1026D000DB6843F48033D36015E07B68043300216A
:1026E000184600F06DFA0346FB740CE07B6820335B
:1026F0000021184600F056FB0346FB7403E001235B
:10270000FB7400E000BFFB7C002B0BD14F494F4B0B
:10271000D3F8883023F040727B689B6E1343C1F876
:10272000883001E0FB7CBB747B681B6803F40033DA
:10273000002B00F09A8000237B74444B9B6D03F0C8
:102740008053002B0DD1414A404B9B6D43F0805389
:1027500093653E4B9B6D03F08053BB60BB680123C8
:102760007B743B4A3A4B1B6843F480731360FEF75B
:1027700053FCF86009E0FEF74FFC0246FB68D31AF1
:10278000022B02D90323FB7405E0314B1B6803F4D1
:102790008073002BEFD0FB7C002B5BD12B4BD3F84D
:1027A000903003F440737B617B69002B1FD07B6802
:1027B000D3F884207B699A4219D0244BD3F8903007
:1027C00023F440737B61214A204BD3F8903043F4CB
:1027D0008033C2F890301D4A1C4BD3F8903023F45C
:1027E0008033C2F89030194A7B69C2F890307B6917
:1027F00003F00103002B16D0FEF70EFCF8600BE08F
:10280000FEF70AFC0246FB68D31A41F28832934273
:1028100002D90323FB7406E00C4BD3F8903003F08D
:102820000203002BECD0FB7C002B0CD10749074B9B
:10283000D3F8903023F440727B68D3F8843013438C
:10284000C1F8903008E0FB7CBB7405E0001002404A
:1028500000700040FB7CBB747B7C012B05D19E4A41
:102860009D4B9B6D23F0805393657B681B6803F041
:102870000103002B0AD09849974BD3F8883023F0F6
:1028800003027B689B6B1343C1F888307B681B682D
:1028900003F00203002B0AD08F498F4BD3F8883006
:1028A00023F00C027B68DB6B1343C1F888307B6834
:1028B0001B6803F00403002B0AD08749864BD3F82A
:1028C000883023F030027B681B6C1343C1F88830DA
:1028D0007B681B6803F00803002B0AD07E497E4BFF
:1028E000D3F8883023F0C0027B685B6C1343C1F8D7
:1028F00088307B681B6803F01003002B0AD07649F0
:10290000754BD3F8883023F440727B689B6C13437B
:10291000C1F888307B681B6803F02003002B0AD0C5
:102920006D496D4BD3F8883023F440627B68DB6CD3
:102930001343C1F888307B681B6803F40073002BD5
:102940000AD06549644BD3F8883023F440227B6871
:10295000DB6D1343C1F888307B681B6803F4806328
:10296000002B0AD05C495C4BD3F8883023F440122A
:102970007B681B6E1343C1F888307B681B6803F0CB
:102980004003002B0AD05449534BD3F8883023F42A
:1029900040527B681B6D1343C1F888307B681B680D
:1029A00003F08003002B0AD04B494B4BD3F88830FF
:1029B00023F440427B685B6D1343C1F888307B6829
:1029C0001B6803F48073002B0AD04349424BD3F8B1
:1029D000883023F440327B689B6D1343C1F8883004
:1029E0007B681B6803F40053002B28D03A493A4B0C
:1029F000D3F8883023F040627B68DB6E1343C1F864
:102A000088307B68DB6EB3F1006F06D1324A324BFF
:102A1000DB6843F48013D36011E07B68DB6EB3F1B5
:102A2000806F0CD17B6804330121184600F0C8F890
:102A30000346FB74FB7C002B01D0FB7CBB747B68E2
:102A40001B6803F40023002B28D02349224BD3F822
:102A5000883023F040627B681B6F1343C1F88830D5
:102A60007B681B6FB3F1006F06D11B4A1A4BDB6802
:102A700043F48013D36011E07B681B6FB3F1806F68
:102A80000CD17B6804330121184600F099F8034605
:102A9000FB74FB7C002B01D0FB7CBB747B681B6848
:102AA00003F48023002B2BD00B490B4BD3F8883039
:102AB00023F040627B685B6F1343C1F888307B680A
:102AC0005B6FB3F1006F09D1034A034BDB6843F43A
:102AD0008013D36014E000BF001002407B685B6F7E
:102AE000B3F1806F0CD17B6804330121184600F0EC
:102AF00067F80346FB74FB7C002B01D0FB7CBB74A6
:102B00007B681B6803F48043002B2FD02B492B4B91
:102B1000D3F8883023F040527B689B6F1343C1F891
:102B200088307B689B6FB3F1805F0DD17B68043385
:102B30000221184600F044F80346FB74FB7C002B8E
:102B400014D0FB7CBB7411E07B689B6FB3F1005F1A
:102B50000CD17B6820330221184600F023F903468C
:102B6000FB74FB7C002B01D0FB7CBB747B681B6877
:102B700003F40043002B0AD01049104BD3F88830DF
:102B800023F080427B68DB6F1343C1F888307B6899
:102B90001B6803F48033002B0BD00849074BD3F894
:102BA000883023F000427B68D3F880301343C1F8AB
:102BB0008830BB7C18461837BD4680BD00100240E7
:102BC00080B584B000AF786039600023BB6000231B
:102BD000FB73734BDB6803F00303002B18D0704BBF
:102BE000DB6803F003027B681B689A420DD17B68A7
:102BF0001B68002B09D06A4BDB6803F070031B09CC
:102C00005A1C7B685B689A4244D00123FB7341E005
:102C10007B681B68022B0CD0032B13D0012B20D117
:102C20005F4B1B6803F00203002B1DD10123FB73D4
:102C30001AE05B4B1B6803F48063002B16D1012361
:102C4000FB7313E0564B1B6803F40033002B0FD1CA
:102C5000534B1B6803F48023002B09D10123FB7322
:102C600006E00123FB7304E000BF02E000BF00E0C8
:102C700000BFFB7B002B0DD14948494BDB6823F09B
:102C800073027B6819687B685B68013B1B010B431F
:102C90001343C360FB7B002B7DD1414A404B1B6833
:102CA00023F080631360FEF7B7F9B86009E0FEF720
:102CB000B3F90246BB68D31A022B02D90323FB7374
:102CC00005E0374B1B6803F00063002BEFD1FB7B63
:102CD000002B60D13B68002B11D13148304B1B6970
:102CE00023F41F3323F440737A68926811027A68E0
:102CF000D268120952040A431343036127E03B6878
:102D0000012B12D12648264B1B6923F4C00323F460
:102D1000FE437A68926811027A6812695208013A91
:102D200052050A431343036111E01D481C4B1B6904
:102D300023F0C06323F4FE437A68926811027A6834
:102D400052695208013A52060A4313430361144A76
:102D5000134B1B6843F080631360FEF75DF9B860A6
:102D600009E0FEF759F90246BB68D31A022B02D9D3
:102D70000323FB7305E00A4B1B6803F00063002B81
:102D8000EFD0FB7B002B06D10549054B1A697B6808
:102D90009B6913430B61FB7B18461037BD4680BD12
:102DA0000010024080B584B000AF78603960002325
:102DB000BB600023FB73684BDB6803F00303002B4D
:102DC00018D0654BDB6803F003027B681B689A42EE
:102DD0000DD17B681B68002B09D05F4BDB6803F0CB
:102DE00070031B095A1C7B685B689A4244D001231C
:102DF000FB7341E07B681B68022B0CD0032B13D0C4
:102E0000012B20D1544B1B6803F00203002B1DD172
:102E10000123FB731AE0504B1B6803F48063002B03
:102E200016D10123FB7313E04B4B1B6803F40033F3
:102E3000002B0FD1484B1B6803F48023002B09D1D2
:102E40000123FB7306E00123FB7304E000BF02E0F3
:102E500000BF00E000BFFB7B002B0DD13E483E4B86
:102E6000DB6823F073027B6819687B685B68013B51
:102E70001B010B431343C360FB7B002B67D1364A16
:102E8000354B1B6823F080531360FEF7C5F8B8601C
:102E900009E0FEF7C1F80246BB68D31A022B02D93B
:102EA0000323FB7305E02C4B1B6803F00053002B3E
:102EB000EFD1FB7B002B4AD13B68002B11D1264878
:102EC000254B5B6923F41F3323F440737A689268BF
:102ED00011027A68D268120952040A43134343610B
:102EE00011E01D481C4B5B6923F0C06323F4FE43D3
:102EF0007A68926811027A6812695208013A520699
:102F00000A4313434361144A134B1B6843F0805335
:102F10001360FEF781F8B86009E0FEF77DF802461D
:102F2000BB68D31A022B02D90323FB7305E00A4BBB
:102F30001B6803F00053002BEFD0FB7B002B06D166
:102F40000549054B5A697B685B6913434B61FB7B01
:102F500018461037BD4680BD0010024080B582B0D3
:102F600000AF78607B68002B01D101231DE07B68F6
:102F700093F83D30DBB2002B06D17B68002283F84A
:102F80003C20786802F08EFB7B68022283F83D20AB
:102F90007B681A687B6804331946104600F03AF9DA
:102FA0007B68012283F83D20002318460837BD4680
:102FB00080BD00BF80B582B000AF78607B681B68C1
:102FC0001B6903F00203002B22D07B681B68DB68BF
:102FD00003F00203002B1BD07B681B686FF002021A
:102FE0001A617B6801221A777B681B689B6903F072
:102FF0000303002B03D0786800F0EEF805E0786852
:1030000000F0E0F8786800F0F1F87B6800221A77A9
:103010007B681B681B6903F00403002B22D07B68CC
:103020001B68DB6803F00403002B1BD07B681B6864
:103030006FF004021A617B6802221A777B681B68B2
:103040009B6903F44073002B03D0786800F0C4F848
:1030500005E0786800F0B6F8786800F0C7F87B689B
:1030600000221A777B681B681B6903F00803002B9A
:1030700022D07B681B68DB6803F00803002B1BD0A1
:103080007B681B686FF008021A617B6804221A775C
:103090007B681B68DB6903F00303002B03D07868AF
:1030A00000F09AF805E0786800F08CF8786800F095
:1030B0009DF87B6800221A777B681B681B6903F008
:1030C0001003002B22D07B681B68DB6803F0100321
:1030D000002B1BD07B681B686FF010021A617B68A5
:1030E00008221A777B681B68DB6903F44073002BA6
:1030F00003D0786800F070F805E0786800F062F8B6
:10310000786800F073F87B6800221A777B681B6888
:103110001B6903F00103002B0ED07B681B68DB6882
:1031200003F00103002B07D07B681B686FF00102DE
:103130001A61786801F040FD7B681B681B6903F029
:103140008003002B0ED07B681B68DB6803F08003D4
:10315000002B07D07B681B686FF080021A617868CB
:1031600000F000F97B681B681B6903F04003002B2B
:103170000ED07B681B68DB6803F04003002B07D090
:103180007B681B686FF040021A61786800F038F8BD
:103190007B681B681B6903F02003002B0ED07B6843
:1031A0001B68DB6803F02003002B07D07B681B68DB
:1031B0006FF020021A61786800F0CAF800BF083783
:1031C000BD4680BD80B483B000AF786000BF0C37CF
:1031D000BD465DF8047B704780B483B000AF786073
:1031E00000BF0C37BD465DF8047B704780B483B0E8
:1031F00000AF786000BF0C37BD465DF8047B7047B8
:1032000080B483B000AF786000BF0C37BD465DF876
:10321000047B704780B485B000AF786039600023CC
:10322000FB607B681B68FB607B68414A934213D05C
:103230007B68B3F1804F0FD07B683E4A93420BD03E
:103240007B683D4A934207D07B683C4A934203D057
:103250007B683B4A934208D1FB6823F07003FB6014
:103260003B685B68FA681343FB607B68304A9342B3
:103270001FD07B68B3F1804F1BD07B682D4A9342EF
:1032800017D07B682C4A934213D07B682B4A934219
:103290000FD07B682A4A93420BD07B68294A93421D
:1032A00007D07B68284A934203D07B68274A934221
:1032B00008D1FB6823F44073FB603B68DB68FA6865
:1032C0001343FB60FB6823F08003FB603B685B6992
:1032D000FA681343FB607B68FA681A603B689A6877
:1032E0007B68DA623B681A687B689A627B68104A7E
:1032F00093420FD07B68124A93420BD07B68114AED
:10330000934207D07B68104A934203D07B680F4AF0
:10331000934203D13B681A697B681A637B68012278
:103320005A6100BF1437BD465DF8047B704700BF8B
:10333000002C01400004004000080040000C004048
:103340000034014000400140004401400048014079
:1033500080B483B000AF786000BF0C37BD465DF825
:10336000047B704780B483B000AF786000BF0C3737
:10337000BD465DF8047B704780B582B000AF7860D1
:103380007B68002B01D1012343E07B6893F8713007
:10339000DBB2002B06D17B68002283F870207868AE
:1033A00002F0DAF97B68242283F871207B681B68BD
:1033B0007A681268126822F001021A60786800F0D8
:1033C00005FA0346012B01D1012322E07B685B6AE9
:1033D000002B02D0786800F03BFD7B681B687A68A0
:1033E0001268526822F490425A607B681B687A68BF
:1033F0001268926822F02A029A607B681B687A68D9
:103400001268126842F001021A60786800F0C2FD8A
:10341000034618460837BD4680BD00BF80B588B05A
:1034200002AFF860B9603B601346FB8000237B610C
:10343000FB6893F87130DBB2202B77D1BB68002B8F
:1034400002D0FB88002B01D1012370E0FB6893F8C8
:103450007030012B01D1022369E0FB68012283F85F
:103460007020FB6800225A67FB68212283F87120D4
:10347000FDF7D2FD7861FB68FA88A3F85020FB685D
:10348000FA88A3F8522034E03B6800937B6900225D
:103490008021F86800F0C8FD0346002B01D003230B
:1034A00045E0FB689B68B3F5805F11D1FB681B6941
:1034B000002B0DD1BB683B61FB681B683A69128821
:1034C000C2F3080292B21A85BB680233BB6007E000
:1034D000FB681A68BB68591CB9601B789BB21385DE
:1034E000FB68B3F852309BB2013B9AB2FB68A3F879
:1034F0005220FB68B3F852309BB2002BC4D13B681A
:1035000000937B6900224021F86800F08DFD03469E
:10351000002B01D003230AE0FB68202283F87120EE
:10352000FB68002283F87020002300E00223184685
:103530001837BD4680BD00BF80B586B000AF78604B
:103540007B681B68DB697B617B681B681B683B6170
:103550007B681B689B68FB607B6903F00F03BB60A3
:10356000BB68002B13D17B6903F02003002B0ED026
:103570003B6903F02003002B09D07B681B6E002BF6
:1035800000F005817B681B6E78689847FFE0BB6898
:10359000002B00F0BF80FB6803F00103002B05D176
:1035A0003B6903F49073002B00F0B4807B6903F057
:1035B0000103002B0ED03B6903F48073002B09D06C
:1035C0007B681B6801221A627B685B6F43F0010213
:1035D0007B685A677B6903F00203002B0ED0FB68FF
:1035E00003F00103002B09D07B681B6802221A62DA
:1035F0007B685B6F43F004027B685A677B6903F06A
:103600000403002B0ED0FB6803F00103002B09D04C
:103610007B681B6804221A627B685B6F43F00202BE
:103620007B685A677B6903F00803002B13D03B6962
:1036300003F02003002B04D1FB6803F00103002BEF
:1036400009D07B681B6808221A627B685B6F43F0B5
:1036500008027B685A677B685B6F002B00F09980DB
:103660007B6903F02003002B0CD03B6903F020039F
:10367000002B07D07B681B6E002B03D07B681B6E72
:10368000786898477B685B6F03F00803002B06D1CE
:103690007B681B689B6803F04003002B31D078687F
:1036A00000F00CFD7B681B689B6803F04003002B57
:1036B00023D07B681B687A681268926822F0400207
:1036C0009A607B68DB6E002B13D07B68DB6E344A1C
:1036D0009A637B68DB6E1846FDF7FEFD0346002B00
:1036E00016D07B68DB6E9B6B7A68D26E104698476B
:1036F0000EE0786800F060F80AE0786800F05CF8A6
:1037000006E0786800F058F87B6800225A6740E0CD
:1037100000BF3EE07B6903F48013002B15D0FB68EB
:1037200003F48003002B10D07B681B684FF48012D9
:103730001A627B68202283F871207B68202283F83C
:103740007220786800F00CFD26E07B6903F08003AE
:10375000002B0DD03B6903F08003002B08D07B6861
:103760005B6E002B17D07B685B6E7868984712E021
:103770007B6903F04003002B0ED03B6903F040034C
:10378000002B09D0786800F0D1FC00BF04E000BF36
:1037900002E000BF00E000BF1837BD4680BD00BF9B
:1037A0000141000880B483B000AF786000BF0C37DF
:1037B000BD465DF8047B704780B483B000AF78608D
:1037C00000BF0C37BD465DF8047B70472DE9B04360
:1037D00088B000AF78600023FB611023FB760023E4
:1037E0007B8100237B610023FB740023FB607B68EB
:1037F0009A687B681B691A437B685B691A437B681C
:10380000DB691343FB617B681A687B681B68196876
:10381000AA4B0B40F9690B4313607B681B687A68FD
:103820001268526822F440517A68D2680A435A609A
:103830007B689B69FB617B681B68A14A934204D04B
:103840007B681B6AFA691343FB617B681B687A68B3
:103850001268926822F43061FA690A439A607B68C0
:103860001B68984A934221D1974BD3F8883003F0D4
:103870000303032B16D801A252F823F08D38000859
:1038800099380008933800089F3800080123FB7618
:10389000E4E00223FB76E1E00423FB76DEE008238C
:1038A000FB76DBE01023FB7600BFD7E07B681B686C
:1038B000864A934234D1844BD3F8883003F00C030A
:1038C0000C2B29D801A252F823F000BF01390008BF
:1038D0001939000819390008193900080D3900088C
:1038E0001939000819390008193900080739000882
:1038F0001939000819390008193900081339000866
:103900000023FB76AAE00223FB76A7E00423FB76E4
:10391000A4E00823FB76A1E01023FB7600BF9DE026
:103920007B681B686A4A934220D1674BD3F8883082
:1039300003F03003102B0FD0102B02D8002B05D032
:1039400010E0202B05D0302B09D00BE00023FB76B4
:1039500084E00223FB7681E00423FB767EE00823EB
:10396000FB767BE01023FB7600BF77E07B681B686B
:10397000584A934220D1544BD3F8883003F0C00307
:10398000402B0FD0402B02D8002B05D010E0802B0D
:1039900005D0C02B09D00BE00023FB765EE00223AC
:1039A000FB765BE00423FB7658E00823FB7655E0CA
:1039B0001023FB7600BF51E07B681B68464A9342A8
:1039C00024D1414BD3F8883003F44073B3F5807FA2
:1039D00012D0B3F5807F02D8002B07D012E0B3F5E8
:1039E000007F06D0B3F5407F09D00BE00023FB76C3
:1039F00034E00223FB7631E00423FB762EE008233B
:103A0000FB762BE01023FB7600BF27E07B681B686A
:103A10002B4A934223D12C4BD3F8883003F44063D4
:103A2000B3F5806F12D0B3F5806F02D8002B07D0AA
:103A300012E0B3F5006F06D0B3F5406F09D00BE08C
:103A40000023FB760AE00223FB7607E00423FB76E3
:103A500004E00823FB7601E01023FB7600BF7B68BF
:103A60001B68174A934240F0EE80FB7E082B37D844
:103A700001A252F823F000BF9D3A0008E13A000885
:103A8000A53A0008E13A0008AB3A0008E13A00081C
:103A9000E13A0008E13A0008B33A0008FEF722FDD7
:103AA000F86020E00D4BFB601DE0FEF75FFCF86066
:103AB00019E04FF40043FB6015E000BFF369FFEF2E
:103AC00000800040003801400010024000440040E7
:103AD00000480040004C0040005000400024F4002A
:103AE0000123FB7400BFFB68002B00F0A2817B6800
:103AF0005A6813465B001A44FB689A4205D87B68F3
:103B00005B681A03FB689A4202D20123FB7490E1BE
:103B1000FB7E082B00F2848001A252F823F000BF44
:103B2000453B0008213C0008853B0008213C00087B
:103B3000B93B0008213C0008213C0008213C00085A
:103B4000F73B0008FEF7CEFC03464FF000044FEAB7
:103B5000042949EA13694FEA03287B685B685B081C
:103B60004FF0000418EB030049EB04017B685B682D
:103B70004FF000041A462346FDF782F803460C4630
:103B80007B6150E07B685B685B084FF00004AF49E5
:103B90004FF0000213EB010844EB0209404649468E
:103BA0007B685B684FF000041A462346FDF768F80F
:103BB00003460C467B6136E0FEF7D8FB03461A4607
:103BC0004FF000031D0245EA126514027B685B6832
:103BD0005B081A464FF00003A01845EB03017B6811
:103BE0005B684FF000041A462346FDF749F8034688
:103BF0000C467B6117E07B685B685B084FF0000454
:103C000013F5000044F100017B685B684FF000048D
:103C10001A462346FDF734F803460C467B6102E062
:103C20000123FB7400BF7B69B3F5407F08D37B6938
:103C3000B3F5801F04D27B681B687A69DA60F8E00C
:103C40000123FB74F5E07B68DB69B3F5004F40F0BE
:103C50008280FB7E082B5CD801A252F823F000BFC3
:103C6000853C0008A33C0008C13C0008133D000847
:103C7000DD3C0008133D0008133D0008133D00081B
:103C8000FB3C0008FEF72EFC03465A007B685B688D
:103C90005B081A447B685B68B2FBF3F39BB27B6101
:103CA0003AE0FEF733FC03465A007B685B685B082A
:103CB0001A447B685B68B2FBF3F39BB27B612BE039
:103CC0007B685B685B0803F1F47303F590437A68E3
:103CD0005268B3FBF2F39BB27B611DE0FEF746FB3B
:103CE00003465A007B685B685B081A447B685B6824
:103CF000B2FBF3F39BB27B610EE07B685B685B0811
:103D000003F580327B685B68B2FBF3F39BB27B61A7
:103D100002E00123FB7400BF7B690F2B18D97B697C
:103D2000B3F5803F14D27B699BB223F00F037B81F4
:103D30007B695B081BB203F007031AB2B7F90A30BC
:103D400013431BB27B817B681B687A89DA6070E061
:103D50000123FB746DE0FB7E082B59D801A252F8B9
:103D600023F000BF893D0008A53D0008C13D0008C3
:103D7000113E0008DD3D0008113E0008113E00081C
:103D8000113E0008F93D0008FEF7ACFB02467B68D7
:103D90005B685B081A447B685B68B2FBF3F39BB219
:103DA0007B6138E0FEF7B2FB02467B685B685B082C
:103DB0001A447B685B68B2FBF3F39BB27B612AE039
:103DC0007B685B685B0803F5740303F510537A683E
:103DD0005268B3FBF2F39BB27B611CE0FEF7C6FABC
:103DE00002467B685B685B081A447B685B68B2FBD1
:103DF000F3F39BB27B610EE07B685B685B0803F5C5
:103E000000427B685B68B2FBF3F39BB27B6102E02C
:103E10000123FB7400BF7B690F2B08D97B69B3F5C5
:103E2000803F04D27B681B687A69DA6001E0012375
:103E3000FB747B6800221A667B6800225A66FB7C52
:103E400018462037BD46BDE8B08300BF000024F40B
:103E500080B483B000AF78607B685B6A03F00103D5
:103E6000002B0AD07B681B687A681268526822F4BB
:103E700000317A68926A0A435A607B685B6A03F091
:103E80000203002B0AD07B681B687A6812685268AC
:103E900022F480317A68D26A0A435A607B685B6A8E
:103EA00003F00403002B0AD07B681B687A68126851
:103EB000526822F480217A68126B0A435A607B6848
:103EC0005B6A03F00803002B0AD07B681B687A68E2
:103ED0001268526822F400417A68526B0A435A60B1
:103EE0007B685B6A03F01003002B0AD07B681B68B9
:103EF0007A681268926822F480517A68926B0A4359
:103F00009A607B685B6A03F02003002B0AD07B6811
:103F10001B687A681268926822F400517A68D26B42
:103F20000A439A607B685B6A03F04003002B1AD057
:103F30007B681B687A681268526822F480117A687C
:103F4000126C0A435A607B681B6CB3F5801F0AD160
:103F50007B681B687A681268526822F4C0017A682C
:103F6000526C0A435A607B685B6A03F08003002B43
:103F70000AD07B681B687A681268526822F40021B4
:103F80007A68926C0A435A6000BF0C37BD465DF8F0
:103F9000047B704780B586B002AF78600023FB6079
:103FA0007B6800225A67FDF737F8F8607B681B686A
:103FB0001B6803F00803002B0ED06FF07E430093C4
:103FC000FB6800224FF40011786800F02DF80346DA
:103FD000002B01D0032322E07B681B681B6803F0E1
:103FE0000403002B0ED06FF07E430093FB68002289
:103FF0004FF48001786800F017F80346002B01D0D9
:1040000003230CE07B68202283F871207B68202248
:1040100083F872207B68002283F870200023184602
:104020001037BD4680BD00BF80B584B000AFF860DA
:10403000B9603B601346FB712CE0BB69B3F1FF3FF5
:1040400028D0BB69002B07D0FCF7E6FF02463B688F
:10405000D21ABB699A421DD9FB681B68FA681268BC
:10406000126822F4D0721A60FB681B68FA68126842
:10407000926822F001029A60FB68202283F8712086
:10408000FB68202283F87220FB68002283F87020EE
:1040900003230FE0FB681B68DA69BB681A40BB6842
:1040A0009A420CBF01230023DBB21A46FB799A42E5
:1040B000C3D0002318461037BD4680BD80B483B0FE
:1040C00000AF78607B681B687A681268126822F417
:1040D00090721A607B681B687A681268926822F096
:1040E00001029A607B68202283F872207B6800229C
:1040F0001A6600BF0C37BD465DF8047B704700BFF1
:1041000080B584B000AF78607B689B6AFB60FB6819
:104110000022A3F85A20FB680022A3F85220F86876
:10412000FFF74AFB00BF1037BD4680BD80B582B0A7
:1041300000AF78607B681B687A681268126822F0AA
:1041400040021A607B68202283F871207B6800227D
:104150005A667868FFF726FB00BF0837BD4680BD6A
:1041600080B483B000AF786000BF0C37BD465DF807
:10417000047B704780B500AF1B4B1B6801331A4AA4
:1041800013601A4B1B680133184A136000F006F9DC
:10419000164B1B68B3F5FA7F04D1144B00221A604A
:1041A00000F02CF8124BDA680F4B1B689A4219DAB0
:1041B0000F4BDB68002B15D00E4B1B6801330D4AEB
:1041C00013600C4B1B680A2B07D10B4B1B68013388
:1041D000094A1360074B00221A60034B00221A6041
:1041E00000F092FA00BF80BDC0050020C405002089
:1041F000A8050020CC050020C805002080B500AF30
:10420000614B1B68614B1B680A2B07D15E4B1B6817
:1042100001335D4A13605D4B00221A605C4B1B68E2
:10422000012B40F09E80584B1B68022B13DC574B30
:104230001B68002B05D101224FF400415548FDF7C2
:104240004FFA524B1B68052B05D100224FF4004159
:104250005048FDF745FA4C4B1B68022B28DD4A4BB2
:104260001B680A2B24DC494B1B68002B17D14A4BD7
:104270001A68454B1B68033B42FA03F303F0010342
:10428000002B06D001224FF400414248FDF728FAE6
:1042900005E000224FF400413E48FDF721FA3B4B78
:1042A0001B68052B04D14FF400413A48FDF730FA62
:1042B000354B1B680A2B28DD334B1B68122B24DC83
:1042C000324B1B68002B17D1334B5A682E4B1B689F
:1042D0000B3B42FA03F303F00103002B06D001224B
:1042E0004FF400412B48FDF7FBF905E000224FF4A5
:1042F00000412848FDF7F4F9244B1B68052B04D135
:104300004FF400412348FDF703FA1F4B1B68132BA2
:1043100005D100224FF400411E48FDF7E1F91A4B88
:104320001B68122B05DD1A4B00221A60164B002267
:104330001A60154B1B68122B09DD134B1B68312BC0
:1043400005DC00224FF400411248FDF7C9F90E4B7D
:104350001B68322B05DD0E4B00221A600A4B00222F
:104360001A600A4B1B680133084A1360084B1B682C
:10437000074B1B68022B05D100224FF40041054872
:10438000FDF7AEF900BF80BDA0050020A405002008
:1043900094050020000800480400002080B500AF0C
:1043A000A24B1B68012B40F0A081A14B1B68022B84
:1043B00000F39B819F4B1B68002B0ED108219E4868
:1043C000FDF776F90346002B40F08F81994B0122CF
:1043D0001A609A4B0022DA6087E1964B1B68012B2A
:1043E0000ED1974B00221A6008219348FDF760F91F
:1043F0000346012B40F079818E4B02221A6074E152
:104400008C4B1B68022B23D108218B48FDF750F9F8
:104410000346002B40F06981894B1B6840F6BE22A1
:10442000934203DD834B00221A605EE1844B1B68DC
:1044300040F6C902934203DC7E4B00221A6054E12D
:104440007F4B1B687D4A13607A4B03221A604CE154
:10445000784B1B68032B0ED1794B00221A60082180
:104460007548FDF725F90346012B40F03E81714B5D
:1044700004221A6039E16F4B1B68042B23D10821F9
:104480006D48FDF715F90346002B40F02E816C4B6B
:104490001B6840F6BE22934203DD664B00221A6081
:1044A00023E1674B1B6840F6C902934203DC614B72
:1044B00000221A6019E1624B1B68604A53605D4B31
:1044C00005221A6011E15B4B1B68052B0ED15C4B7A
:1044D00000221A6008215848FDF7EAF80346012B2C
:1044E00040F00381534B06221A60FEE0514B1B68DB
:1044F000062B23D108215048FDF7DAF80346002B9C
:1045000040F0F3804E4B1B6840F6BE22934203DD21
:10451000484B00221A60E8E0494B1B6840F6C9028C
:10452000934203DC434B00221A60DEE0444B1B68DD
:10453000424A93603F4B07221A60D6E03D4B1B680E
:10454000072B40F0CF803D4B1A683C4B59683B4BE2
:104550001B683C4880FB03E08010DB17C31A0B4448
:104560009A4280F2A680354B1A68344B5968334B17
:104570001B68344880FB03E08010DB17C31ACB1A9A
:104580009A4240F396802D4B5A682C4B99682B4BDE
:104590005B682C4880FB03E08010DB17C31A0B44D8
:1045A0009A426CDA254B5A68244B9968234B5B6816
:1045B000244880FB03E08010DB17C31ACB1A9A4211
:1045C0005DDD1E4B1A681D4B99681C4B1B681D480E
:1045D00080FB03E08010DB17C31A0B449A4235DAE4
:1045E000164B1A68154B9968144B1B68154880FBCD
:1045F00003E08010DB17C31ACB1A9A4226DD0D4B5D
:104600000A221A600D4B9B680E4A82FB031252105D
:10461000DB17D31A094AD360054B02221A600A4BF2
:1046200005221A60064B00221A6041E000000020BB
:10463000C80500200C00002000040048A805002048
:10464000C005002067666666CC050020284801F09A
:104650006FF9284B1B681946274801F005F9254BCF
:104660005B681946254801F0FFF8224B9B68194604
:10467000234801F0F9F8234B00221A6018E01C4887
:1046800001F056F91B4B1B6819461B4801F0ECF86A
:10469000184B5B681946194801F0E6F8154B9B6802
:1046A0001946174801F0E0F8164B00221A601CE08A
:1046B0001BE00F4801F03CF90E4B1B6819460E48F1
:1046C00001F0D2F80B4B5B6819460C4801F0CCF8AE
:1046D000084B9B6819460A4801F0C6F8094B0022AE
:1046E0001A6002E0074B1B68FFE700BF80BD00BFF8
:1046F00068920008A80500207892000884920008BB
:10470000909200080C00002080B500AF614B1B6840
:10471000022B48DD5F4B1B680A2B44DC5E4B1B6899
:10472000022B0DD108215D48FCF7C2FF0346012B87
:1047300003D15B4B01221A6002E0594B00221A6040
:10474000554B1B68072B0DD108215448FCF7B0FFCF
:104750000346012B03D1524B01225A6002E0504B19
:1047600000225A604E4B1B68012B12D14C4B5B68E8
:10477000002B0ED1484B1B68092B0AD1494B1A68F4
:10478000444B1B68033B012101FA03F31344454AE0
:104790001360414B1B68092B05D1414B00221A6065
:1047A0003F4B00225A603B4B1B680A2B48DD394BBC
:1047B0001B68122B44DC384B1B68022B0DD10821DF
:1047C0003648FCF775FF0346012B03D1344B012219
:1047D0001A6002E0324B00221A602F4B1B68072B35
:1047E0000DD108212D48FCF763FF0346012B03D1AF
:1047F0002B4B01225A6002E0294B00225A60284BC1
:104800001B68012B12D1264B5B68002B0ED1224B6B
:104810001B68092B0AD1234B5A681E4B1B680B3BA4
:10482000012101FA03F313441E4A53601A4B1B681B
:10483000092B05D11A4B00221A60194B00225A602D
:10484000144B1B68132B06D1134B1B68092B02D189
:10485000154B02221A600F4B1B68132B05DD0D4B05
:1048600000221A60114B00221A600A4B1B68022BAF
:104870000DDD084B1B680A2B09DC074B1B68002B5E
:1048800003D10B4B1B68034B1B68034B1B6800BF1A
:1048900080BD00BFC8050020CC05002000040048F2
:1048A000B805002098050020000000200C00002022
:1048B0000400002080B483B000AF786039600A4BF8
:1048C00001221A60094B00221A60094B00221A606B
:1048D000084A7B681360074A3B68536000BF0C3787
:1048E000BD465DF8047B704794050020A0050020BC
:1048F000A40500200400002080B58AB000AF634A00
:10490000624BDB6C43F00403D364604BDB6C03F05D
:1049100004033B613B695D4A5C4BDB6C43F0010384
:10492000D3645A4BDB6C03F00103FB60FB68574A0E
:10493000564BDB6C43F00203D364544BDB6C03F047
:104940000203BB60BB68514A504BDB6C43F0100361
:10495000D3644E4BDB6C03F010037B607B684B4AE7
:104960004A4BDB6C43F00803D364484BDB6C03F029
:1049700008033B603B6800224FF440414448FCF789
:10498000AFFE002204214348FCF7AAFE00224FF4A8
:10499000C2414148FCF7A4FE4FF440437B61012330
:1049A000BB610023FB6100233B6207F1140319463E
:1049B0003748FCF7D1FC2F237B610023BB61022326
:1049C000FB6107F1140319464FF09040FCF7C4FC5B
:1049D00004237B610123BB610123FB6103233B6251
:1049E00007F1140319462B48FCF7B6FC4FF480730B
:1049F0007B610123BB610123FB6103233B6207F160
:104A0000140319462448FCF7A7FC4FF480637B612C
:104A1000224BBB610123FB6107F1140319461E48B9
:104A2000FCF79AFC4FF410437B610023BB61002329
:104A3000FB6107F1140319461748FCF78DFC4FF48E
:104A4000C0437B610123BB610023FB6100233B6208
:104A500007F1140319461048FCF77EFC08237B611C
:104A60000023BB610023FB6107F1140319460948C9
:104A7000FCF772FC002200212820FCF7CDFB282047
:104A8000FCF7E6FB00BF2837BD4680BD00100240A2
:104A900000080048000400480010004800003110E1
:104AA00080B500AF1E4B1F4A1A601D4B1E4A5A604C
:104AB0001B4B00229A601A4B0122DA60184B00222D
:104AC0001A61174B00225A61154B00229A61144B50
:104AD0000022DA61124B00221A621148FCF742FEF2
:104AE0000346002B03D04221104800F0F3FC0021C4
:104AF0000B48FCF7C5FE0346002B03D049210B48A9
:104B000000F0E8FC00210648FCF706FF0346002BF6
:104B100003D05021054800F0DDFC00BF80BD00BF80
:104B20001406002000540040912970009C92000857
:104B300080B588B000AF78607B681B68114A9342EB
:104B40001BD1C023FB6012233B6101237B61032344
:104B5000BB610423FB6107F10C0319460A48FCF70B
:104B6000FBFB0A4A094B9B6D43F400139365074B0B
:104B70009B6D03F40013BB60BB6800BF2037BD46CC
:104B800080BD00BF005400400004004800100240F7
:104B900080B584B000AFF860B9607A607B689AB283
:104BA0006423B9680348FEF739FC7B681846103760
:104BB000BD4680BDA806002080B582B000AF7860F9
:104BC0007B68044A934201D1FFF7D4FA00BF08374B
:104BD000BD4680BD6806002080B582B000AF0346A8
:104BE000FB80FB88B3F5806F11D10B4B01221A605B
:104BF0004FF480610948FCF75BFD0346002B03D1AD
:104C0000074800F095FE02E0064800F091FE00BF64
:104C10000837BD4680BD00BFD40500200010004805
:104C2000AC920008BC920008B0B588B000AF7860C4
:104C300087ED000A7B68002B40F38E8001224FF441
:104C400000519548FCF74CFD944B1846FBF77CFC53
:104C500003460C461A4623464FF000009049FBF7E6
:104C6000F1FD03460C4625461C464FF07E53184680
:104C7000FBF76AFC02460B4620462946FBF7E2FD9D
:104C800003460C4618462146FBF7AAFF03467B6104
:104C90007B6807EE903AF8EEE77AC7ED047A97ED75
:104CA000007AD7ED057A67EE277A17EE900AFBF7C0
:104CB0004BFC03460C461A4623464FF00000794948
:104CC000FBF7C0FD03460C461846214670A3D3E906
:104CD0000023FBF78DFC03460C4618462146FBF7E4
:104CE0005FFF0346FB600023FB6123E001224FF4DA
:104CF00080416948FCF7F4FCFB686B4AA2FB032384
:104D00009B091846FCF794F900224FF48041624851
:104D1000FCF7E6FCFB68644AA2FB03239B091846E8
:104D2000FCF786F9614B1B680133604A1360FB692D
:104D30000133FB61FB6907EE903AB8EE677AD7ED75
:104D4000047AB4EEE77AF1EE10FACFD4574B1B6831
:104D50001946574800F088FD7B68002B80F291804F
:104D600000224FF400514C48FCF7BAFC7B685B42D0
:104D70007B604A4B1846FBF7E7FB03460C461A4696
:104D800023464FF000004649FBF75CFD03460C4606
:104D900025461C464FF07E531846FBF7D5FB0246CE
:104DA0000B4620462946FBF74DFD03460C461846A8
:104DB0002146FBF715FF03467B617B6807EE903ABF
:104DC000F8EEE77AC7ED047A97ED007AD7ED057A29
:104DD00067EE277A17EE900AFBF7B6FB03460C4600
:104DE0001A4623464FF000002E49FBF72BFD0346E1
:104DF0000C461846214626A3D3E90023FBF7F8FB0F
:104E000003460C4618462146FBF7CAFE0346FB60E4
:104E10000023BB6123E001224FF480411E48FCF7D0
:104E20005FFCFB68204AA2FB03239B091846FCF7A2
:104E3000FFF800224FF480411748FCF751FCFB6853
:104E4000194AA2FB03239B091846FCF7F1F8174BFC
:104E50001B68013B154A1360BB690133BB61BB6929
:104E600007EE903AB8EE677AD7ED047AB4EEE77AB7
:104E7000F1EE10FACFD40D4B1B6819460C4800F028
:104E8000F3FC00BF2037BD46B0BD00BFAFF30080CC
:104E90000000000080841E41001000486666E63F66
:104EA0000080764000004E40D34D6210D0050020B7
:104EB000CC92000880B500AF4FF480611248FCF737
:104EC000F7FB0346002B1CD1104B1B68002B0CDB9F
:104ED0000E4B1B68B3F5966F07DC0C4B1B685B42EF
:104EE0009FED0B0A1846FFF79FFE084B1B68002B2F
:104EF00004DB064B1B68B3F5966F02DD054800F036
:104F000017FD00BF80BD00BF00100048D005002085
:104F100000004843E092000880B500AF4FF4806184
:104F20001C48FCF7C5FB0346002B30D11A4B1B680D
:104F3000002B0DDB184B1B68B3F5C87F08DA164B46
:104F40001B68C3F5C8739FED150A1846FFF76CFE82
:104F5000114B1B68B3F5C87F0DDB0F4B1B68B3F516
:104F6000966F08DC0C4B1B68C3F5C8739FED0B0AEA
:104F70001846FFF759FE084B1B68002B04DB064B55
:104F80001B68B3F5966F02DD054800F0D1FC00BF49
:104F900080BD00BF00100048D0050020000048433D
:104FA000E092000880B500AF4FF480611C48FCF728
:104FB0007FFB0346002B30D11A4B1B68002B0DDB07
:104FC000184B1B68B3F5487F08DA164B1B68C3F50E
:104FD00048739FED150A1846FFF726FE114B1B6814
:104FE000B3F5487F0DDB0F4B1B68B3F5966F08DCFC
:104FF0000C4B1B68C3F548739FED0B0A1846FFF76F
:1050000013FE084B1B68002B04DB064B1B68B3F533
:10501000966F02DD054800F08BFC00BF80BD00BF2D
:1050200000100048D005002000004843E09200082E
:1050300080B500AF4FF480611248FCF739FB03469E
:10504000002B1DD1104B1B68002B0DDB0E4B1B687A
:10505000B3F5966F08DC0C4B1B68C3F596639FEDA8
:105060000B0A1846FFF7E0FD074B1B68002B04DB1B
:10507000054B1B68B3F5966F02DD054800F058FC40
:1050800000BF80BD00100048D0050020000048434C
:10509000E092000880B500AF134B1B68002B04DBC7
:1050A000114B1B68B3F5966F03DD104800F040FC10
:1050B00017E000224FF400510D48FCF711FB0122CC
:1050C0004FF480410A48FCF70BFB0220FBF7B0FFCE
:1050D00000224FF480410648FCF702FB0220FBF758
:1050E000A7FF00BF80BD00BFD0050020E0920008F0
:1050F0000010004880B500AF134B1B68002B04DB89
:10510000114B1B68B3F5966F03DD104800F010FCDF
:1051100017E001224FF400510D48FCF7E1FA01229B
:105120004FF480410A48FCF7DBFA0220FBF780FFCE
:1051300000224FF480410648FCF7D2FA0220FBF728
:1051400077FF00BF80BD00BFD0050020E0920008BF
:105150000010004880B586B000AF4FF480518E48F3
:10516000FCF7A6FA03461A468C4B1A60FBF714FFAD
:1051700000F02CF9FFF7C0FB00F0BAFAFFF790FC43
:1051800000F066FA864800F0D3FB01237B61002320
:105190003B610023FB60834B1B68022B51D1824B88
:1051A0001B68302B08D1804B5B68642B04D1002234
:1051B00004217E48FCF794FA7B4B1B68302B1AD1F4
:1051C000794B5B68652B16D1012204217748FCF7E7
:1051D00087FA00233B6106E004217448FCF798FA43
:1051E0003B6901333B613B69714A9342F4DDDD2148
:1051F000C820FFF75FFB6C4B1B68302B15D16A4B47
:105200005B68662B11D100233B6106E004216748EF
:10521000FCF77EFA3B6901333B613B69644A934288
:10522000F4DDDE21C820FFF745FB5F4B00221A604A
:105230005D4B00225A605B4B01221A605D4B0022DD
:105240001A607B6901337B617B695B4A934208D1B9
:105250001E211420FFF72EFB00237B61FB68013326
:10526000FB60564B1B68012B1ED14FF480614A48EE
:10527000FCF71EFA0346002B0BD101224FF480717C
:105280004548FCF72DFA002204214848FCF728FA8B
:105290000AE000224FF480713F48FCF721FA012216
:1052A00004214248FCF71CFA20214FF09040FCF703
:1052B000FFF90346012B01D1FFF7BAFE08214FF099
:1052C0009040FCF7F5F90346012B01D1FFF7F2FD01
:1052D00002214FF09040FCF7EBF90346012B01D17E
:1052E000FFF71AFE04214FF09040FCF7E1F9034666
:1052F000012B01D1FFF756FE4FF480612648FCF7E1
:10530000D7F90346002B7FF446AF4FF48051224873
:10531000FCF7CEF903461A46294B1A60284B1A6847
:105320001E4B1B689A4231D04FF400411A48FCF7DB
:10533000BFF903461A46224B1B689A4210D000233D
:10534000BB6009E01F4B1B68013B1E4A1360FFF75F
:10535000A1FEBB680133BB60BB68042BF2DD0FE02C
:1053600000237B6009E0174B1B680133154A13606B
:10537000FFF7C0FE7B6801337B607B68042BF2DDA6
:10538000104B1B681946104800F06EFA0C4B1B6856
:10539000024A1360FFE600BF0010004860060020CC
:1053A0000C9300080000002098050020000400482D
:1053B0009F8601000C000020801A0600D405002002
:1053C00064060020D0050020CC92000880B5B8B05B
:1053D00000AF1023C7F89C300123C7F8B430002376
:1053E000C7F8B8306023C7F8BC300223C7F8C43010
:1053F0000123C7F8C8302823C7F8D0300723C7F8DF
:10540000D4300223C7F8D8300223C7F8DC3007F1C4
:105410009C031846FCF730FB0346002B04D04FF4E6
:10542000D7712A4800F056F80F23C7F888300323B5
:10543000C7F88C300023C7F890300023C7F89430A9
:105440000023C7F8983007F1880304211846FCF7B9
:1054500075FE0346002B04D04FF4DE711B4800F0AC
:1054600039F842233B600023FB6300233B653B4646
:105470001846FDF7C1F80346002B04D04FF4E27143
:10548000124800F027F84FF40070FCF7A1FA034629
:10549000002B04D040F2CB110C4800F01BF8FDF7B4
:1054A00015F802460A4BA3FB02239B091846FBF79B
:1054B000DDFE0420FBF7E6FE002200214FF0FF3066
:1054C000FBF7AAFE00BFE037BD4680BD149300087D
:1054D000D34D621080B483B000AF78603960FEE7CE
:1054E00080B582B000AF244A234B1B6E43F001030A
:1054F0001366214B1B6E03F001037B607B681E4A21
:105500001D4B9B6D43F0805393651B4B9B6D03F0CC
:1055100080533B603B680320FBF772FE00220021B2
:105520006FF00B00FBF778FE002200216FF00A00FD
:10553000FBF772FE002200216FF00900FBF76CFE02
:10554000002200216FF00400FBF766FE002200211C
:105550006FF00300FBF760FE002200216FF00100F6
:10556000FBF75AFE002200214FF0FF30FBF754FEFC
:1055700000BF0837BD4680BD0010024080B400AFB8
:1055800000BFBD465DF8047B704700BF80B400AF2C
:1055900000BFBD465DF8047B704700BF80B500AF1B
:1055A000FBF72CFDFBF78AFE00BF80BD80B500AF86
:1055B0000248FDF7FFFC00BF80BD00BF6806002069
:1055C00080B500AF0248FDF7B7FF00BF80BD00BF48
:1055D000A806002080B500AF4FF48060FCF7AAF861
:1055E00000BF80BD80B400AF174A174BD3F8883096
:1055F00043F47003C2F88830144A144B1B6843F01C
:1056000001031360114B00229A60104A0F4B1B6874
:1056100023F0A85323F4102313600C4B4FF4805253
:10562000DA600A4A094B1B6823F480231360074B96
:1056300000229A61044B4FF000629A6000BFBD46A1
:105640005DF8047B704700BF00ED00E000100240F1
:1056500080B500AF104B114A1A600F4B50225A60B0
:105660000D4B00229A600C4B0A22DA600A4B002292
:105670001A61094B00225A61074B00229A610648C1
:10568000FDF76CFC0346002B03D03E210448FFF7D6
:1056900021FF00BF80BD00BF680600200048014018
:1056A0002493000880B584B000AF78607B681B68E5
:1056B0000D4A934213D10D4A0C4B1B6E43F48023C9
:1056C00013660A4B1B6E03F48023FB60FB68002209
:1056D00000211A20FBF7A0FD1A20FBF7B9FD00BF3F
:1056E0001037BD4680BD00BF004801400010024099
:1056F00080B500AF154B164A1A60144B4FF4E132D7
:105700005A60124B4FF080529A60104B0022DA60C0
:105710000E4B00221A610D4B0C225A610B4B0022DA
:105720009A610A4B0022DA61084B00221A62074B89
:1057300000225A620548FDF71FFE0346002B03D0E6
:1057400044210448FFF7C6FE00BF80BDA806002024
:10575000004400403493000880B588B000AF786002
:105760007B681B68154A934223D1154A144B9B6DE5
:1057700043F400339365124B9B6D03F40033BB601D
:10578000BB686023FB6002233B6101237B61032331
:10579000BB610723FB6107F10C0319460948FBF7BE
:1057A000DBFD002200212620FBF736FD2620FBF73B
:1057B0004FFD00BF2037BD4680BD00BF0044004004
:1057C00000100240000C0048DFF834D0002103E054
:1057D0000C4B5B58435004310B480C4B42189A4217
:1057E000F6D30B4A02E0002342F8043B094B9A42ED
:1057F000F9D3FFF7F7FE00F011F8FFF7ABFCFEE777
:10580000008001206C950008000000207805002031
:105810007805002024070020FEE7000070B50E4B3D
:105820000E4CE41AA41000251E46A54204D056F8DA
:10583000253098470135F8E703F00AFD084C094B7D
:10584000E41AA41000251E46A54204D056F82530BF
:1058500098470135F8E770BD649500086495000825
:1058600068950008649500080FB40A4B13B51C68CE
:1058700024B1A36913B9204602F02CF805AB049AB1
:10588000A1680193204600F05BF802B0BDE810402B
:1058900004B070470401002030B5054689B00846C1
:1058A0000C46FAF795FC1E4B0693012305900793CF
:1058B000184404AB0193022304940390029325B18E
:1058C000AB6913B9284602F005F8AB69AC6813B9A7
:1058D000284601F0FFFF134B9C4201D16C6808E0A1
:1058E000114B9C4201D1AC6803E0104B9C4208BFB5
:1058F000EC68B4F90C309A0406D4626E43F4005399
:1059000022F40052A381626601AA2146284602F0D1
:1059100067F9002814BF4FF0FF300A2009B030BDEE
:105920008C930008F093000810940008309400084D
:10593000024B01461868FFF7AFBF00BF040100200B
:105940002DE9F04FBDB08B4605921C461F4682469E
:1059500002F0B8FA03680D931846FAF739FC08907C
:10596000BAF1000F05D0DAF8183013B9504601F03B
:10597000B1FF9D4B9B4502D1DAF804B00AE09B4B86
:105980009B4502D1DAF808B004E0994B9B4508BF6B
:10599000DAF80CB0BBF90C30980409D4DBF86420B9
:1059A00043F4005322F40052ABF80C30CBF86420DF
:1059B000BBF80C30190709D5DBF8103033B1BBF850
:1059C0000C3003F01A030A2B16D109E05946504651
:1059D00000F0E6FF0028F2D04FF0FF3000F0A3BF48
:1059E000BBF90E30002B07DB2346059A594650467B
:1059F00000F0A0FF00F097BF9FED797B8DED067B57
:105A000000232CAC1F9421932093049311931093A3
:105A10000A93059D2B4613F8012B1AB1252A01D0B4
:105A20001D46F7E7059BEE1A17D084E84800219B36
:105A300033442193209B0133072B209301DC08344E
:105A400008E01FAA5946504603F0D1F9002840F05B
:105A500033862CAC0A9B33440A932B78002B00F03E
:105A6000248600226B1C8DF85F2011464FF0FF3911
:105A7000099215460A205E1C1B7805960293029B2C
:105A8000203B582B00F26A82DFE813F05C006802CA
:105A900068026C00680268026802680268026802B4
:105AA0006F00590068027A007D006802A400B60009
:105AB000B600B600B600B600B600B600B600B60036
:105AC0006802680268026802680268026802680286
:105AD00068026802E60012016802120168026802A8
